{
  "contractName": "Dao",
  "abi": [
    {
      "constant": false,
      "inputs": [],
      "name": "renounceOwnership",
      "outputs": [],
      "payable": false,
      "stateMutability": "nonpayable",
      "type": "function"
    },
    {
      "constant": true,
      "inputs": [],
      "name": "owner",
      "outputs": [
        {
          "name": "",
          "type": "address"
        }
      ],
      "payable": false,
      "stateMutability": "view",
      "type": "function"
    },
    {
      "constant": true,
      "inputs": [
        {
          "name": "contractName",
          "type": "string"
        },
        {
          "name": "migrationId",
          "type": "string"
        }
      ],
      "name": "isMigrated",
      "outputs": [
        {
          "name": "",
          "type": "bool"
        }
      ],
      "payable": false,
      "stateMutability": "view",
      "type": "function"
    },
    {
      "constant": false,
      "inputs": [
        {
          "name": "_newOwner",
          "type": "address"
        }
      ],
      "name": "transferOwnership",
      "outputs": [],
      "payable": false,
      "stateMutability": "nonpayable",
      "type": "function"
    },
    {
      "anonymous": false,
      "inputs": [
        {
          "indexed": true,
          "name": "user",
          "type": "address"
        },
        {
          "indexed": false,
          "name": "amount",
          "type": "uint256"
        }
      ],
      "name": "CreatedUserEscrow",
      "type": "event"
    },
    {
      "anonymous": false,
      "inputs": [
        {
          "indexed": true,
          "name": "user",
          "type": "address"
        },
        {
          "indexed": false,
          "name": "amount",
          "type": "uint256"
        }
      ],
      "name": "UnlockedUserEscrow",
      "type": "event"
    },
    {
      "anonymous": false,
      "inputs": [
        {
          "indexed": true,
          "name": "user",
          "type": "address"
        },
        {
          "indexed": false,
          "name": "amount",
          "type": "uint256"
        }
      ],
      "name": "PaidUser",
      "type": "event"
    },
    {
      "anonymous": false,
      "inputs": [
        {
          "indexed": true,
          "name": "owner",
          "type": "address"
        },
        {
          "indexed": true,
          "name": "appId",
          "type": "bytes32"
        },
        {
          "indexed": false,
          "name": "amount",
          "type": "uint256"
        }
      ],
      "name": "DepositedToApp",
      "type": "event"
    },
    {
      "anonymous": false,
      "inputs": [
        {
          "indexed": true,
          "name": "owner",
          "type": "address"
        },
        {
          "indexed": true,
          "name": "appId",
          "type": "bytes32"
        },
        {
          "indexed": false,
          "name": "amount",
          "type": "uint256"
        }
      ],
      "name": "WithdrawnFromApp",
      "type": "event"
    },
    {
      "anonymous": false,
      "inputs": [
        {
          "indexed": true,
          "name": "previousOwner",
          "type": "address"
        }
      ],
      "name": "OwnershipRenounced",
      "type": "event"
    },
    {
      "anonymous": false,
      "inputs": [
        {
          "indexed": true,
          "name": "previousOwner",
          "type": "address"
        },
        {
          "indexed": true,
          "name": "newOwner",
          "type": "address"
        }
      ],
      "name": "OwnershipTransferred",
      "type": "event"
    },
    {
      "anonymous": false,
      "inputs": [
        {
          "indexed": false,
          "name": "contractName",
          "type": "string"
        },
        {
          "indexed": false,
          "name": "migrationId",
          "type": "string"
        }
      ],
      "name": "Migrated",
      "type": "event"
    },
    {
      "constant": false,
      "inputs": [
        {
          "name": "_token",
          "type": "address"
        }
      ],
      "name": "initialize",
      "outputs": [],
      "payable": false,
      "stateMutability": "nonpayable",
      "type": "function"
    },
    {
      "constant": false,
      "inputs": [
        {
          "name": "_amount",
          "type": "uint256"
        }
      ],
      "name": "createUserEscrow",
      "outputs": [
        {
          "name": "",
          "type": "bool"
        }
      ],
      "payable": false,
      "stateMutability": "nonpayable",
      "type": "function"
    },
    {
      "constant": true,
      "inputs": [
        {
          "name": "_user",
          "type": "address"
        }
      ],
      "name": "balanceOfUser",
      "outputs": [
        {
          "name": "",
          "type": "uint256"
        }
      ],
      "payable": false,
      "stateMutability": "view",
      "type": "function"
    },
    {
      "constant": false,
      "inputs": [
        {
          "name": "_user",
          "type": "address"
        },
        {
          "name": "_amount",
          "type": "uint256"
        }
      ],
      "name": "unlockUserEscrow",
      "outputs": [
        {
          "name": "",
          "type": "bool"
        }
      ],
      "payable": false,
      "stateMutability": "nonpayable",
      "type": "function"
    },
    {
      "constant": false,
      "inputs": [
        {
          "name": "_user",
          "type": "address"
        },
        {
          "name": "_amount",
          "type": "uint256"
        }
      ],
      "name": "payUser",
      "outputs": [
        {
          "name": "",
          "type": "bool"
        }
      ],
      "payable": false,
      "stateMutability": "nonpayable",
      "type": "function"
    },
    {
      "constant": true,
      "inputs": [
        {
          "name": "_user",
          "type": "address"
        }
      ],
      "name": "paymentsOfUser",
      "outputs": [
        {
          "name": "",
          "type": "uint256"
        }
      ],
      "payable": false,
      "stateMutability": "view",
      "type": "function"
    },
    {
      "constant": false,
      "inputs": [
        {
          "name": "_appId",
          "type": "bytes32"
        },
        {
          "name": "_amount",
          "type": "uint256"
        }
      ],
      "name": "depositToApp",
      "outputs": [
        {
          "name": "",
          "type": "bool"
        }
      ],
      "payable": false,
      "stateMutability": "nonpayable",
      "type": "function"
    },
    {
      "constant": true,
      "inputs": [
        {
          "name": "_appId",
          "type": "bytes32"
        }
      ],
      "name": "balanceOfApp",
      "outputs": [
        {
          "name": "",
          "type": "uint256"
        }
      ],
      "payable": false,
      "stateMutability": "view",
      "type": "function"
    },
    {
      "constant": false,
      "inputs": [
        {
          "name": "_appOwner",
          "type": "address"
        },
        {
          "name": "_appId",
          "type": "bytes32"
        },
        {
          "name": "_amount",
          "type": "uint256"
        }
      ],
      "name": "withdrawFromApp",
      "outputs": [
        {
          "name": "",
          "type": "bool"
        }
      ],
      "payable": false,
      "stateMutability": "nonpayable",
      "type": "function"
    }
  ],
  "bytecode": "0x608060405233600160006101000a81548173ffffffffffffffffffffffffffffffffffffffff021916908373ffffffffffffffffffffffffffffffffffffffff1602179055506119ef806100546000396000f3006080604052600436106100c5576000357c0100000000000000000000000000000000000000000000000000000000900463ffffffff16806312cae7af146100ca5780634b6135ab14610121578063715018a61461016657806384d741361461017d5780638da5cb5b146101d0578063b1500c1314610227578063c0bac1a81461029a578063c4d66de814610361578063d038ae9f146103a4578063ecd831e8146103fb578063f2fde38b14610460578063f6b05319146104a3578063f96aa1bb146104e8575b600080fd5b3480156100d657600080fd5b5061010b600480360381019080803573ffffffffffffffffffffffffffffffffffffffff16906020019092919050505061054d565b6040518082815260200191505060405180910390f35b34801561012d57600080fd5b506101506004803603810190808035600019169060200190929190505050610596565b6040518082815260200191505060405180910390f35b34801561017257600080fd5b5061017b6105be565b005b34801561018957600080fd5b506101b66004803603810190808035600019169060200190929190803590602001909291905050506106c3565b604051808215151515815260200191505060405180910390f35b3480156101dc57600080fd5b506101e5610922565b604051808273ffffffffffffffffffffffffffffffffffffffff1673ffffffffffffffffffffffffffffffffffffffff16815260200191505060405180910390f35b34801561023357600080fd5b50610280600480360381019080803573ffffffffffffffffffffffffffffffffffffffff169060200190929190803560001916906020019092919080359060200190929190505050610948565b604051808215151515815260200191505060405180910390f35b3480156102a657600080fd5b50610347600480360381019080803590602001908201803590602001908080601f0160208091040260200160405190810160405280939291908181526020018383808284378201915050505050509192919290803590602001908201803590602001908080601f0160208091040260200160405190810160405280939291908181526020018383808284378201915050505050509192919290505050610c45565b604051808215151515815260200191505060405180910390f35b34801561036d57600080fd5b506103a2600480360381019080803573ffffffffffffffffffffffffffffffffffffffff169060200190929190505050610d30565b005b3480156103b057600080fd5b506103e5600480360381019080803573ffffffffffffffffffffffffffffffffffffffff16906020019092919050505061102a565b6040518082815260200191505060405180910390f35b34801561040757600080fd5b50610446600480360381019080803573ffffffffffffffffffffffffffffffffffffffff16906020019092919080359060200190929190505050611073565b604051808215151515815260200191505060405180910390f35b34801561046c57600080fd5b506104a1600480360381019080803573ffffffffffffffffffffffffffffffffffffffff16906020019092919050505061130a565b005b3480156104af57600080fd5b506104ce60048036038101908080359060200190929190505050611372565b604051808215151515815260200191505060405180910390f35b3480156104f457600080fd5b50610533600480360381019080803573ffffffffffffffffffffffffffffffffffffffff169060200190929190803590602001909291905050506115b0565b604051808215151515815260200191505060405180910390f35b6000600460008373ffffffffffffffffffffffffffffffffffffffff1673ffffffffffffffffffffffffffffffffffffffff168152602001908152602001600020549050919050565b6000600560008360001916600019168152602001908152602001600020600101549050919050565b600160009054906101000a900473ffffffffffffffffffffffffffffffffffffffff1673ffffffffffffffffffffffffffffffffffffffff163373ffffffffffffffffffffffffffffffffffffffff1614151561061a57600080fd5b600160009054906101000a900473ffffffffffffffffffffffffffffffffffffffff1673ffffffffffffffffffffffffffffffffffffffff167ff8df31144d9c2f0f6b59d69b8b98abd5459d07f2742c4df920b25aae33c6482060405160405180910390a26000600160006101000a81548173ffffffffffffffffffffffffffffffffffffffff021916908373ffffffffffffffffffffffffffffffffffffffff160217905550565b6000816000811115156106d557600080fd5b600260009054906101000a900473ffffffffffffffffffffffffffffffffffffffff1673ffffffffffffffffffffffffffffffffffffffff166323b872dd3330846040518463ffffffff167c0100000000000000000000000000000000000000000000000000000000028152600401808473ffffffffffffffffffffffffffffffffffffffff1673ffffffffffffffffffffffffffffffffffffffff1681526020018373ffffffffffffffffffffffffffffffffffffffff1673ffffffffffffffffffffffffffffffffffffffff1681526020018281526020019350505050602060405180830381600087803b1580156107ce57600080fd5b505af11580156107e2573d6000803e3d6000fd5b505050506040513d60208110156107f857600080fd5b8101908080519060200190929190505050151561081457600080fd5b3360056000866000191660001916815260200190815260200160002060000160006101000a81548173ffffffffffffffffffffffffffffffffffffffff021916908373ffffffffffffffffffffffffffffffffffffffff1602179055506108a2836005600087600019166000191681526020019081526020016000206001015461189290919063ffffffff16565b6005600086600019166000191681526020019081526020016000206001018190555083600019163373ffffffffffffffffffffffffffffffffffffffff167fc88342346ff4c82fb4f4aface0adef60c2e59e372b49b4fec321ff888c13aa47856040518082815260200191505060405180910390a3600191505092915050565b600160009054906101000a900473ffffffffffffffffffffffffffffffffffffffff1681565b6000600160009054906101000a900473ffffffffffffffffffffffffffffffffffffffff1673ffffffffffffffffffffffffffffffffffffffff163373ffffffffffffffffffffffffffffffffffffffff161415156109a657600080fd5b600073ffffffffffffffffffffffffffffffffffffffff168473ffffffffffffffffffffffffffffffffffffffff16141515156109e257600080fd5b600082118015610a105750600560008460001916600019168152602001908152602001600020600101548211155b1515610a1b57600080fd5b8373ffffffffffffffffffffffffffffffffffffffff1660056000856000191660001916815260200190815260200160002060000160009054906101000a900473ffffffffffffffffffffffffffffffffffffffff1673ffffffffffffffffffffffffffffffffffffffff16141515610a9357600080fd5b610ac482600560008660001916600019168152602001908152602001600020600101546118ae90919063ffffffff16565b60056000856000191660001916815260200190815260200160002060010181905550600260009054906101000a900473ffffffffffffffffffffffffffffffffffffffff1673ffffffffffffffffffffffffffffffffffffffff1663a9059cbb85846040518363ffffffff167c0100000000000000000000000000000000000000000000000000000000028152600401808373ffffffffffffffffffffffffffffffffffffffff1673ffffffffffffffffffffffffffffffffffffffff16815260200182815260200192505050602060405180830381600087803b158015610bab57600080fd5b505af1158015610bbf573d6000803e3d6000fd5b505050506040513d6020811015610bd557600080fd5b81019080805190602001909291905050505082600019168473ffffffffffffffffffffffffffffffffffffffff167f9029a126d4e7fd4dc3e4c4542f27bead19362b357bf92af727e8d6f60324b1f8846040518082815260200191505060405180910390a3600190509392505050565b600080836040518082805190602001908083835b602083101515610c7e5780518252602082019150602081019050602083039250610c59565b6001836020036101000a0380198251168184511680821785525050505050509050019150509081526020016040518091039020826040518082805190602001908083835b602083101515610ce75780518252602082019150602081019050602083039250610cc2565b6001836020036101000a038019825116818451168082178552505050505050905001915050908152602001604051809103902060009054906101000a900460ff16905092915050565b6040805190810160405280600381526020017f44616f00000000000000000000000000000000000000000000000000000000008152506040805190810160405280600381526020017f302e310000000000000000000000000000000000000000000000000000000000815250610da68282610c45565b151515610db257600080fd5b600073ffffffffffffffffffffffffffffffffffffffff168373ffffffffffffffffffffffffffffffffffffffff1614151515610dee57600080fd5b82600260006101000a81548173ffffffffffffffffffffffffffffffffffffffff021916908373ffffffffffffffffffffffffffffffffffffffff1602179055507fdd117a11c22118c9dee4b5a67ce578bc44529dce21ee0ccc439588fbb9fb4ea38282604051808060200180602001838103835285818151815260200191508051906020019080838360005b83811015610e96578082015181840152602081019050610e7b565b50505050905090810190601f168015610ec35780820380516001836020036101000a031916815260200191505b50838103825284818151815260200191508051906020019080838360005b83811015610efc578082015181840152602081019050610ee1565b50505050905090810190601f168015610f295780820380516001836020036101000a031916815260200191505b5094505050505060405180910390a160016000836040518082805190602001908083835b602083101515610f725780518252602082019150602081019050602083039250610f4d565b6001836020036101000a0380198251168184511680821785525050505050509050019150509081526020016040518091039020826040518082805190602001908083835b602083101515610fdb5780518252602082019150602081019050602083039250610fb6565b6001836020036101000a038019825116818451168082178552505050505050905001915050908152602001604051809103902060006101000a81548160ff021916908315150217905550505050565b6000600360008373ffffffffffffffffffffffffffffffffffffffff1673ffffffffffffffffffffffffffffffffffffffff168152602001908152602001600020549050919050565b6000600160009054906101000a900473ffffffffffffffffffffffffffffffffffffffff1673ffffffffffffffffffffffffffffffffffffffff163373ffffffffffffffffffffffffffffffffffffffff161415156110d157600080fd5b600073ffffffffffffffffffffffffffffffffffffffff168373ffffffffffffffffffffffffffffffffffffffff161415151561110d57600080fd5b60008211151561111c57600080fd5b61116e82600360008673ffffffffffffffffffffffffffffffffffffffff1673ffffffffffffffffffffffffffffffffffffffff1681526020019081526020016000205461189290919063ffffffff16565b600360008573ffffffffffffffffffffffffffffffffffffffff1673ffffffffffffffffffffffffffffffffffffffff16815260200190815260200160002081905550600260009054906101000a900473ffffffffffffffffffffffffffffffffffffffff1673ffffffffffffffffffffffffffffffffffffffff1663a9059cbb84846040518363ffffffff167c0100000000000000000000000000000000000000000000000000000000028152600401808373ffffffffffffffffffffffffffffffffffffffff1673ffffffffffffffffffffffffffffffffffffffff16815260200182815260200192505050602060405180830381600087803b15801561127657600080fd5b505af115801561128a573d6000803e3d6000fd5b505050506040513d60208110156112a057600080fd5b8101908080519060200190929190505050508273ffffffffffffffffffffffffffffffffffffffff167ffec2056d1d35e63b23770d40d340da2ba842c1c0850131bdf21be4cb660f128b836040518082815260200191505060405180910390a26001905092915050565b600160009054906101000a900473ffffffffffffffffffffffffffffffffffffffff1673ffffffffffffffffffffffffffffffffffffffff163373ffffffffffffffffffffffffffffffffffffffff1614151561136657600080fd5b61136f816118c7565b50565b60008160008111151561138457600080fd5b600260009054906101000a900473ffffffffffffffffffffffffffffffffffffffff1673ffffffffffffffffffffffffffffffffffffffff166323b872dd3330846040518463ffffffff167c0100000000000000000000000000000000000000000000000000000000028152600401808473ffffffffffffffffffffffffffffffffffffffff1673ffffffffffffffffffffffffffffffffffffffff1681526020018373ffffffffffffffffffffffffffffffffffffffff1673ffffffffffffffffffffffffffffffffffffffff1681526020018281526020019350505050602060405180830381600087803b15801561147d57600080fd5b505af1158015611491573d6000803e3d6000fd5b505050506040513d60208110156114a757600080fd5b810190808051906020019092919050505015156114c357600080fd5b61151583600460003373ffffffffffffffffffffffffffffffffffffffff1673ffffffffffffffffffffffffffffffffffffffff1681526020019081526020016000205461189290919063ffffffff16565b600460003373ffffffffffffffffffffffffffffffffffffffff1673ffffffffffffffffffffffffffffffffffffffff168152602001908152602001600020819055503373ffffffffffffffffffffffffffffffffffffffff167f410c897d3ec2dfab6b0a4ba7a7056d9adce8870233842f75f27e973267c0e32d846040518082815260200191505060405180910390a26001915050919050565b6000600160009054906101000a900473ffffffffffffffffffffffffffffffffffffffff1673ffffffffffffffffffffffffffffffffffffffff163373ffffffffffffffffffffffffffffffffffffffff1614151561160e57600080fd5b600073ffffffffffffffffffffffffffffffffffffffff168373ffffffffffffffffffffffffffffffffffffffff161415151561164a57600080fd5b6000821180156116995750600460008473ffffffffffffffffffffffffffffffffffffffff1673ffffffffffffffffffffffffffffffffffffffff168152602001908152602001600020548211155b15156116a457600080fd5b6116f682600460008673ffffffffffffffffffffffffffffffffffffffff1673ffffffffffffffffffffffffffffffffffffffff168152602001908152602001600020546118ae90919063ffffffff16565b600460008573ffffffffffffffffffffffffffffffffffffffff1673ffffffffffffffffffffffffffffffffffffffff16815260200190815260200160002081905550600260009054906101000a900473ffffffffffffffffffffffffffffffffffffffff1673ffffffffffffffffffffffffffffffffffffffff1663a9059cbb84846040518363ffffffff167c0100000000000000000000000000000000000000000000000000000000028152600401808373ffffffffffffffffffffffffffffffffffffffff1673ffffffffffffffffffffffffffffffffffffffff16815260200182815260200192505050602060405180830381600087803b1580156117fe57600080fd5b505af1158015611812573d6000803e3d6000fd5b505050506040513d602081101561182857600080fd5b8101908080519060200190929190505050508273ffffffffffffffffffffffffffffffffffffffff167f6b6433ef98826838fb7d449fa35d867a705b01990cedc528eb5aab725e3d7ff5836040518082815260200191505060405180910390a26001905092915050565b600081830190508281101515156118a557fe5b80905092915050565b60008282111515156118bc57fe5b818303905092915050565b600073ffffffffffffffffffffffffffffffffffffffff168173ffffffffffffffffffffffffffffffffffffffff161415151561190357600080fd5b8073ffffffffffffffffffffffffffffffffffffffff16600160009054906101000a900473ffffffffffffffffffffffffffffffffffffffff1673ffffffffffffffffffffffffffffffffffffffff167f8be0079c531659141344cd1fd0a4f28419497f9722a3daafe3b4186f6b6457e060405160405180910390a380600160006101000a81548173ffffffffffffffffffffffffffffffffffffffff021916908373ffffffffffffffffffffffffffffffffffffffff160217905550505600a165627a7a72305820a02121f431ca7c0168a348d23787547bff209610ef9b248b647a4efafe11575a0029",
  "source": "pragma solidity 0.4.24;\nimport \"../../node_modules/zos-lib/contracts/migrations/Migratable.sol\";\nimport \"../../node_modules/openzeppelin-solidity/contracts/math/SafeMath.sol\";\nimport \"../../node_modules/openzeppelin-solidity/contracts/token/ERC20/StandardToken.sol\";\nimport \"../../node_modules/openzeppelin-solidity/contracts/ownership/Ownable.sol\";\n\n\ncontract Dao is Migratable, Ownable {\n    using SafeMath for uint256;\n  \n    StandardToken private canyaCoin;\n\n    struct App {\n        address owner;\n        uint256 balance;\n    }\n    \n    mapping (address=>uint256) internal usersPayment;\n    mapping (address=>uint256) internal usersBalance;\n    mapping (bytes32=>App) internal apps;\n\n    event CreatedUserEscrow(address indexed user, uint256 amount);\n    event UnlockedUserEscrow(address indexed user, uint256 amount);\n    event PaidUser(address indexed user, uint256 amount);\n    \n    event DepositedToApp(address indexed owner, bytes32 indexed appId, uint256 amount);\n    event WithdrawnFromApp(address indexed owner, bytes32 indexed appId, uint256 amount);\n\n    modifier isAmountEscrowed(uint256 _amount) {\n        require(_amount > 0);\n        require(canyaCoin.transferFrom(msg.sender, address(this), _amount));\n        _;\n    }\n\n    function initialize(StandardToken _token) public isInitializer(\"Dao\", \"0.1\") {\n        require(_token != address(0));\n        canyaCoin = _token;\n    }\n\n    function createUserEscrow(uint256 _amount)\n    public isAmountEscrowed(_amount) \n    returns (bool) {\n        usersBalance[msg.sender] = usersBalance[msg.sender].add(_amount);\n        emit CreatedUserEscrow(msg.sender, _amount);\n        return true;\n    }\n\n    function balanceOfUser(address _user) \n    public view \n    returns (uint256) {\n        return usersBalance[_user];\n    }\n\n    function unlockUserEscrow(address _user, uint256 _amount)    \n    public \n    onlyOwner\n    returns (bool) {        \n        require(_user != address(0));\n        require(_amount > 0 && _amount <= usersBalance[_user]);\n        \n        usersBalance[_user] = usersBalance[_user].sub(_amount);\n        \n        canyaCoin.transfer(_user, _amount);\n\n        emit UnlockedUserEscrow(_user, _amount);\n        \n        return true;\n    }\n\n    function payUser(address _user, uint256 _amount)    \n    public \n    onlyOwner\n    returns (bool) {        \n        require(_user != address(0));\n        require(_amount > 0);\n        \n        usersPayment[_user] = usersPayment[_user].add(_amount);\n        \n        canyaCoin.transfer(_user, _amount);\n\n        emit PaidUser(_user, _amount);\n        \n        return true;\n    }\n\n    function paymentsOfUser(address _user)\n    public view \n    returns (uint256) {\n        return usersPayment[_user];\n    }\n\n    function depositToApp(bytes32 _appId, uint256 _amount)\n    public\n    isAmountEscrowed(_amount)\n    returns (bool) {\n        apps[_appId].owner = msg.sender;\n        apps[_appId].balance = apps[_appId].balance.add(_amount);\n\n        emit DepositedToApp(msg.sender, _appId, _amount);   \n\n        return true;\n    }\n\n    function balanceOfApp(bytes32 _appId)\n    public view \n    returns (uint256) {\n        return apps[_appId].balance;\n    }\n\n    function withdrawFromApp(address _appOwner, bytes32 _appId, uint256 _amount)\n    public \n    onlyOwner\n    returns (bool) {\n        require(_appOwner != address(0));\n        require(_amount > 0 && _amount <= apps[_appId].balance);\n        require(apps[_appId].owner == _appOwner);      \n        \n        apps[_appId].balance = apps[_appId].balance.sub(_amount);\n\n        canyaCoin.transfer(_appOwner, _amount);\n\n        emit WithdrawnFromApp(_appOwner, _appId, _amount);\n        \n        return true;\n    }\n\n}",
  "sourcePath": "/Users/user/workspace_work/CanYa/Common/src/contracts/Dao.sol",
  "compiler": {
    "name": "solc",
    "version": "0.4.24+commit.e67f0147.Emscripten.clang"
  },
  "schemaVersion": "2.0.1",
  "updatedAt": "2018-07-04T05:35:12.142Z"
}